:100000000C945B000C9481000C9481000C94810092
:100010000C9481000C9481000C9481000C9481005C
:100020000C9481000C9481000C9481000C9481004C
:100030000C9481000C9481000C9481000C9481003C
:100040000C94B0020C9481000C9401050C94810076
:100050000C9481000C9481000C9481000C9481001C
:100060000C9481000C948100AF0200000007000294
:10007000010000030406000000000000000001026F
:100080000408102040800102040810200102040826
:100090001020040404040404040402020202020204
:1000A0000303030303030000232629000025282B54
:1000B000000024272A0011241FBECFEFD4E0DEBFAA
:1000C000CDBF11E0A0E0B1E0EAEFFCE002C0059096
:1000D0000D92AE31B107D9F711E0AEE1B1E001C048
:1000E0001D92A93BB107E1F710E0CAE6D0E004C0D9
:1000F0002297FE010E947906C836D107C9F70C94F1
:10010000DF010C94000061E082E00E94D50361E011
:1001100083E00E94D50361E084E00E94D50361E0A2
:1001200085E00E94D50361E086E00E94D50361E08E
:1001300087E00E94D50361E080910C010E943C049D
:100140006091000170910101882777FD8095982FBB
:100150000E94870408958F929F92AF92BF92CF9290
:10016000DF92EF92FF920F931F93E62EA42E992712
:1001700087FD9095A92FB92F20E3822E21E0922EA2
:1001800020E030E0AC01BD01C4010E948002FF24E8
:10019000E7FCF0940F2D1F2D20E030E0B801A701FF
:1001A000C4010E948002BB24A7FCB094CB2CDB2CA2
:1001B00020E030E0B601A501C4010E9480021F9139
:1001C0000F91FF90EF90DF90CF90BF90AF909F90F6
:1001D0008F900895482F67E080EB0E94AB00089550
:1001E00045E4682F80E90E94AB000895EF92FF92EA
:1001F0000F931F93CF93DF9380911E0190911F0166
:10020000089721F410921F0110921E01E0911E0127
:10021000F0911F01EE0FFF1FE25FFE4F8081918181
:100220009093230180932201BC01617070707093E0
:10023000290160932801959587959C012170307064
:1002400030932701209326019595879581709070B2
:10025000909325018093240185E00E943C046091E5
:10026000260186E00E943C046091240187E00E9400
:100270003C0480911E0190911F01019690931F01F3
:1002800080931E01809106010E94660365E570E07F
:100290000E94130656E0E52EF12CE61AF70A0EE04E
:1002A00011E0809104010E94660364E070E00E9406
:1002B00013067093030160930201F801808191811C
:1002C0009093230180932201BC0161707070709340
:1002D0002F0160932E01959587959C0121703070B8
:1002E00030932D0120932C01959587958170907006
:1002F00090932B0180932A0182E00E943C0460913C
:100300002C0183E00E943C0460912A0184E00E9459
:100310003C04809108010E94660365E570E00E943C
:100320001306635D7F4F6038710514F06FE770E06E
:10033000EB01CE0DDF1D809120010E9466036CE071
:1003400070E00E941306685D7F4F6038710514F0FD
:100350006FE770E0CB010E94EA00CE010E94F0003E
:100360006091020170910301882777FD8095982F95
:100370000E94ED0280E090E00E94EA0040E06C2FD5
:1003800080E90E94AB00809102019091030162E03C
:1003900070E00E941306882777FD8095982F0E94B1
:1003A000ED020E5F1F4FF1E00E311F0709F079CF0C
:1003B000DF91CF911F910F91FF90EF900895CFEFB4
:1003C000D4E0DEBFCDBF0E941C030E9483000E94C8
:1003D000F600FDCF08950895CB01BA010E9487046D
:1003E00008950E94C804992708950E94D904089589
:1003F0000E94F8040895862F0E943F050895CB01BE
:100400000E9446050895862F0E943F0508950F9388
:100410001F938C016DE00E94FB016AE0C8010E94FD
:10042000FB011F910F9108950F931F938C010E9460
:10043000FB01C8010E9407021F910F9108950F93BD
:100440001F938C010E94FF01C8010E9407021F91A7
:100450000F9108950F931F938C010E940302C8010E
:100460000E9407021F910F910895CB01BA01332713
:10047000442755270E94530508952AE00E9435021B
:1004800008950F931F938C010E943D02C8010E94A2
:1004900007021F910F910895AB01662777270E94ED
:1004A0003D020895EF92FF920F931F93CF93DF9336
:1004B000EC017A018B0177FF0BC06DE20E94FB011A
:1004C00010950095F094E094E11CF11C011D111DA4
:1004D0002AE0B801A701CE010E943502DF91CF9139
:1004E0001F910F91FF90EF9008950F931F938C0130
:1004F0000E945202C8010E9407021F910F910895A5
:100500002115310521F4642F0E94FB0108952A3042
:10051000310519F40E94520208950E94350208958F
:100520000F931F938C010E948002C8010E94070252
:100530001F910F910895AB01662757FD6095762FA7
:100540000E94520208950F931F938C010E949B02F8
:10055000C8010E9407021F910F9108950895089500
:100560001F920F920FB60F9211248F939F93AF9308
:10057000BF938091350190913601A0913701B091E0
:1005800038010196A11DB11D80933501909336016C
:10059000A0933701B0933801BF91AF919F918F9194
:1005A0000F900FBE0F901F901895609135017091BC
:1005B0003601809137019091380127E0660F771F4F
:1005C000881F991F2A95D1F72DE730E040E050E0D1
:1005D0000E942606CA01B9010895AF92BF92CF9238
:1005E000DF92EF92FF920F931F935B016C010E94C9
:1005F000D5027B018C010E94D5026E197F09800B08
:10060000910B6A157B058C059D05A8F31F910F9131
:10061000FF90EF90DF90CF90BF90AF90089501973B
:1006200051F0880F991F880F991F02972FB7F894E0
:100630000197F1F72FBF0895789410923501109229
:100640003601109237011092380184B5826084BD62
:1006500084B5816084BD85B5826085BD85B58160C6
:1006600085BDEEE6F0E0808181608083E1E8F0E026
:10067000808182608083808181608083E0E8F0E017
:10068000808181608083E1EBF0E080818460808301
:10069000E0EBF0E0808181608083ECE7F0E0808136
:1006A0008F778083808180648083EAE7F0E08081B7
:1006B0008460808380818260808380818160808388
:1006C0008081806880831092C100089590917C00A1
:1006D000907F8F70982B90937C0080917A0080643B
:1006E00080937A0080917A0086FDFCCF209178007B
:1006F000809179009927982F88273327822B932B75
:1007000008951F93CF93DF93182FEB0161E00E94B0
:10071000D503E12FFF27E659FF4F8491833051F431
:1007200080918000806880938000D0938900C0937E
:10073000880037C0843051F48091800080628093BB
:100740008000D0938B00C0938A002BC0813029F4A5
:1007500084B5806884BDC7BD24C0823029F484B5C7
:10076000806284BDC8BD1DC0863041F48091B00058
:1007700080688093B000C093B30013C0873041F409
:100780008091B00080628093B000C093B40009C033
:10079000C038D10514F460E001C061E0812F0E94EF
:1007A0003C04DF91CF911F910895282F3327C90171
:1007B00082589F4FFC0194912E563F4FF90184912E
:1007C000882381F0E82FFF27E055FF4FE491FF27B2
:1007D000662329F480819095892380830895808100
:1007E000892B80830895482F5527CA0186599F4F2A
:1007F000FC012491CA0182589F4FFC0194914E56EE
:100800005F4FFA0134913323A1F1222331F12330D8
:1008100021F4809180008F7705C0243031F48091DD
:1008200080008F7D8093800018C0213019F484B53A
:100830008F7704C0223021F484B58F7D84BD0DC034
:10084000263021F48091B0008F7705C0273029F43D
:100850008091B0008F7D8093B000E32FFF27EA5591
:10086000FF4FE491FF278081892319F081E090E018
:10087000089580E090E00895482F5527CA018659D1
:100880009F4FFC012491CA0182589F4FFC01949113
:100890004E565F4FFA0134913323C1F1222331F1D7
:1008A000233021F4809180008F7705C0243031F40B
:1008B000809180008F7D8093800018C0213019F4D2
:1008C00084B58F7704C0223021F484B58F7D84BD38
:1008D0000DC0263021F48091B0008F7705C02730FD
:1008E00029F48091B0008F7D8093B000E32FFF2723
:1008F000E555FF4FE491FF27662329F48081909509
:100900008923808308958081892B80830895EF92C5
:10091000FF920F931F937B018C0122E030E040E0B7
:1009200050E00E944806205C3D4B404F5F4FCA019B
:10093000B901A80197010E9448062150304040406B
:100940005040BB2757FDBA95A52F942F832F2F5FBB
:100950003F4F4F4F5F4F8093C50021502093C400FD
:10096000E1ECF0E080818061808380818860808319
:100970008081806880831F910F91FF90EF90089590
:10098000982F8091C00085FFFCCF9093C6000895FA
:1009900080913301909134012091310130913201E5
:1009A000821B930B80589F4F60E870E00E941306F3
:1009B000089540913101509132018091330190911D
:1009C00034018417950719F48FEF9FEF0895FA010A
:1009D000E75CFE4F2081CA01019660E870E00E944A
:1009E00013069093320180933101822F9927089545
:1009F00080913101909132019093340180933301C1
:100A000008951F920F920FB60F9211242F933F93C8
:100A10004F935F936F937F938F939F93AF93BF9306
:100A2000EF93FF934091C600E0913301F0913401C0
:100A3000CF01019660E870E00E9413069C0180914E
:100A40003101909132012817390739F0E75CFE4FE8
:100A500040833093340120933301FF91EF91BF9194
:100A6000AF919F918F917F916F915F914F913F9146
:100A70002F910F900FBE0F901F90189508950E9410
:100A8000C00408958AE00E943F050895CF93DF9344
:100A9000EC0103C021960E943F0588818823D1F78D
:100AA000DF91CF9108952F923F924F925F926F9274
:100AB0007F928F929F92AF92BF92CF92DF92EF92EE
:100AC000FF920F931F93CF93DF93CDB7DEB7A0971D
:100AD0000FB6F894DEBF0FBECDBF6B017C011901CC
:100AE0002A01611571058105910521F480E30E94B9
:100AF0003F054BC06624772443015E010894A11C86
:100B0000B11C8501060D171DC701B601A201910197
:100B10000E942606F80160830894611C711C811CE8
:100B2000911CC701B601A20191010E94260669012C
:100B30007A01211531054105510519F77301089412
:100B4000E108F108EA0CFB1CAA24BB24650111C0D2
:100B5000F70180818A3010F4805D01C0895C0E94B9
:100B60003F050894A108B108C108D1080894E1081C
:100B7000F10888279927DC0186199709A809B9097E
:100B8000A816B906CA06DB0619F7A0960FB6F894A0
:100B9000DEBF0FBECDBFDF91CF911F910F91FF90B0
:100BA000EF90DF90CF90BF90AF909F908F907F900D
:100BB0006F905F904F903F902F900895EF92FF922B
:100BC0000F931F937B018C0197FF0BC08DE20E9456
:100BD0003F0510950095F094E094E11CF11C011D77
:100BE000111D2AE030E040E050E0C801B7010E944A
:100BF00053051F910F91FF90EF90089520E130E091
:100C000040E050E00E945305089528E030E040E0C5
:100C100050E00E945305089522E030E040E050E0AB
:100C20000E945305089597FB092E07260AD077FDE9
:100C300004D049D006D000201AF4709561957F4FFA
:100C40000895F6F7909581959F4F0895A1E21A2E89
:100C5000AA1BBB1BFD010DC0AA1FBB1FEE1FFF1F60
:100C6000A217B307E407F50720F0A21BB30BE40BB0
:100C7000F50B661F771F881F991F1A9469F76095F7
:100C80007095809590959B01AC01BD01CF010895B1
:100C900097FB092E05260ED057FD04D0D7DF0AD0CA
:100CA000001C38F450954095309521953F4F4F4F9B
:100CB0005F4F0895F6F790958095709561957F4FF9
:100CC0008F4F9F4F0895AA1BBB1B51E107C0AA1F5E
:100CD000BB1FA617B70710F0A61BB70B881F991FDD
:100CE0005A95A9F780959095BC01CD010895EE0F16
:0A0CF000FF1F0590F491E02D099418
:100CFA00127A640002000300010078000D0000006F
:0E0D0A0001000A000B00640065006E006F001F
:00000001FF
